{
  "contractName": "SimpleBank",
  "abi": [
    {
      "constant": true,
      "inputs": [
        {
          "name": "",
          "type": "address"
        }
      ],
      "name": "enrolled",
      "outputs": [
        {
          "name": "",
          "type": "bool"
        }
      ],
      "payable": false,
      "stateMutability": "view",
      "type": "function"
    },
    {
      "constant": true,
      "inputs": [],
      "name": "owner",
      "outputs": [
        {
          "name": "",
          "type": "address"
        }
      ],
      "payable": false,
      "stateMutability": "view",
      "type": "function"
    },
    {
      "inputs": [],
      "payable": false,
      "stateMutability": "nonpayable",
      "type": "constructor"
    },
    {
      "payable": false,
      "stateMutability": "nonpayable",
      "type": "fallback"
    },
    {
      "anonymous": false,
      "inputs": [
        {
          "indexed": false,
          "name": "accountAddress",
          "type": "address"
        }
      ],
      "name": "LogEnrolled",
      "type": "event"
    },
    {
      "anonymous": false,
      "inputs": [
        {
          "indexed": false,
          "name": "accountAddress",
          "type": "address"
        },
        {
          "indexed": false,
          "name": "amount",
          "type": "uint256"
        }
      ],
      "name": "LogDepositMade",
      "type": "event"
    },
    {
      "anonymous": false,
      "inputs": [
        {
          "indexed": false,
          "name": "accountAddress",
          "type": "address"
        },
        {
          "indexed": false,
          "name": "withdrawAmount",
          "type": "uint256"
        },
        {
          "indexed": false,
          "name": "newBalance",
          "type": "uint256"
        }
      ],
      "name": "LogWithdrawal",
      "type": "event"
    },
    {
      "constant": true,
      "inputs": [],
      "name": "getBalance",
      "outputs": [
        {
          "name": "",
          "type": "uint256"
        }
      ],
      "payable": false,
      "stateMutability": "view",
      "type": "function"
    },
    {
      "constant": false,
      "inputs": [],
      "name": "enroll",
      "outputs": [
        {
          "name": "",
          "type": "bool"
        }
      ],
      "payable": false,
      "stateMutability": "nonpayable",
      "type": "function"
    },
    {
      "constant": false,
      "inputs": [],
      "name": "deposit",
      "outputs": [
        {
          "name": "",
          "type": "uint256"
        }
      ],
      "payable": true,
      "stateMutability": "payable",
      "type": "function"
    },
    {
      "constant": false,
      "inputs": [
        {
          "name": "withdrawAmount",
          "type": "uint256"
        }
      ],
      "name": "withdraw",
      "outputs": [
        {
          "name": "",
          "type": "uint256"
        }
      ],
      "payable": false,
      "stateMutability": "nonpayable",
      "type": "function"
    }
  ],
  "bytecode": "0x608060405234801561001057600080fd5b5033600260006101000a81548173ffffffffffffffffffffffffffffffffffffffff021916908373ffffffffffffffffffffffffffffffffffffffff16021790555061081f806100616000396000f3fe608060405260043610610078576000357c0100000000000000000000000000000000000000000000000000000000900463ffffffff16806310eb0e0e146100ce57806312065fe0146101375780632e1a7d4d146101625780638da5cb5b146101b1578063d0e30db014610208578063e65f2a7e14610226575b34801561008457600080fd5b506040517f08c379a0000000000000000000000000000000000000000000000000000000008152600401808060200182810382526000815260200160200191505060405180910390fd5b3480156100da57600080fd5b5061011d600480360360208110156100f157600080fd5b81019080803573ffffffffffffffffffffffffffffffffffffffff169060200190929190505050610255565b604051808215151515815260200191505060405180910390f35b34801561014357600080fd5b5061014c610275565b6040518082815260200191505060405180910390f35b34801561016e57600080fd5b5061019b6004803603602081101561018557600080fd5b81019080803590602001909291905050506102bb565b6040518082815260200191505060405180910390f35b3480156101bd57600080fd5b506101c66104f3565b604051808273ffffffffffffffffffffffffffffffffffffffff1673ffffffffffffffffffffffffffffffffffffffff16815260200191505060405180910390f35b610210610519565b6040518082815260200191505060405180910390f35b34801561023257600080fd5b5061023b610734565b604051808215151515815260200191505060405180910390f35b60016020528060005260406000206000915054906101000a900460ff1681565b60008060003373ffffffffffffffffffffffffffffffffffffffff1673ffffffffffffffffffffffffffffffffffffffff16815260200190815260200160002054905090565b6000816000803373ffffffffffffffffffffffffffffffffffffffff1673ffffffffffffffffffffffffffffffffffffffff1681526020019081526020016000205410151515610373576040517f08c379a00000000000000000000000000000000000000000000000000000000081526004018080602001828103825260208152602001807f596f7520646f6e277420686176652073756666696369656e742066756e64732e81525060200191505060405180910390fd5b816000803373ffffffffffffffffffffffffffffffffffffffff1673ffffffffffffffffffffffffffffffffffffffff16815260200190815260200160002054036000803373ffffffffffffffffffffffffffffffffffffffff1673ffffffffffffffffffffffffffffffffffffffff168152602001908152602001600020819055507ff9226daf630542048a23086c6af599511aac100ec8f532793cc9697d061bed7e33836000803373ffffffffffffffffffffffffffffffffffffffff1673ffffffffffffffffffffffffffffffffffffffff16815260200190815260200160002054604051808473ffffffffffffffffffffffffffffffffffffffff1673ffffffffffffffffffffffffffffffffffffffff168152602001838152602001828152602001935050505060405180910390a13373ffffffffffffffffffffffffffffffffffffffff166108fc839081150290604051600060405180830381858888f193505050501580156104ed573d6000803e3d6000fd5b50919050565b600260009054906101000a900473ffffffffffffffffffffffffffffffffffffffff1681565b6000600160003373ffffffffffffffffffffffffffffffffffffffff1673ffffffffffffffffffffffffffffffffffffffff16815260200190815260200160002060009054906101000a900460ff161515610602576040517f08c379a00000000000000000000000000000000000000000000000000000000081526004018080602001828103825260278152602001807f5468697320757365722069736e277420656e726f6c6c656420696e2053696d7081526020017f6c652042616e6b0000000000000000000000000000000000000000000000000081525060400191505060405180910390fd5b346000803373ffffffffffffffffffffffffffffffffffffffff1673ffffffffffffffffffffffffffffffffffffffff16815260200190815260200160002054016000803373ffffffffffffffffffffffffffffffffffffffff1673ffffffffffffffffffffffffffffffffffffffff168152602001908152602001600020819055507fa8126f7572bb1fdeae5b5aa9ec126438b91f658a07873f009d041ae690f3a1933334604051808373ffffffffffffffffffffffffffffffffffffffff1673ffffffffffffffffffffffffffffffffffffffff1681526020018281526020019250505060405180910390a16000803373ffffffffffffffffffffffffffffffffffffffff1673ffffffffffffffffffffffffffffffffffffffff16815260200190815260200160002054905090565b600060018060003373ffffffffffffffffffffffffffffffffffffffff1673ffffffffffffffffffffffffffffffffffffffff16815260200190815260200160002060006101000a81548160ff0219169083151502179055507f990c442e6adb818b8fa7db3cf1023decd07f7b66e5306928c7ed527d974192bb33604051808273ffffffffffffffffffffffffffffffffffffffff1673ffffffffffffffffffffffffffffffffffffffff16815260200191505060405180910390a19056fea165627a7a7230582020a3fb93fdd38787ba7cbe3b7c466b8d47067988ebddf11d407e81f5171ffd3d0029",
  "source": "pragma solidity ^0.5.0;\r\n/*\r\n    This exercise has been updated to use Solidity version 0.5\r\n    Breaking changes from 0.4 to 0.5 can be found here:\r\n    https://solidity.readthedocs.io/en/v0.5.0/050-breaking-changes.html\r\n*/\r\ncontract SimpleBank {\r\n\r\n    //\r\n    // State variables\r\n    //\r\n    /* Fill in the keyword. Hint: We want to protect our users balance from other contracts*/\r\n    mapping (address => uint) private balances;\r\n\r\n    /* Fill in the keyword. We want to create a getter function and allow contracts to be able to see if a user is enrolled.  */\r\n    mapping (address => bool) public enrolled;\r\n\r\n    /* Let's make sure everyone knows who owns the bank. Use the appropriate keyword for this*/\r\n    address public owner;\r\n\r\n    //\r\n    // Events - publicize actions to external listeners\r\n    //\r\n\r\n    /* Add an argument for this event, an accountAddress */\r\n    event LogEnrolled(address accountAddress);\r\n\r\n    /* Add 2 arguments for this event, an accountAddress and an amount */\r\n    event LogDepositMade(address accountAddress, uint amount);\r\n\r\n    /* Create an event called LogWithdrawal */\r\n    /* Add 3 arguments for this event, an accountAddress, withdrawAmount and a newBalance */\r\n    event LogWithdrawal(address accountAddress, uint withdrawAmount, uint newBalance );\r\n\r\n    //\r\n    // Functions\r\n    //\r\n\r\n    /* Use the appropriate global variable to get the sender of the transaction */\r\n    constructor() public {\r\n        /* Set the owner to the creator of this contract */\r\n        owner = msg.sender;\r\n    }\r\n\r\n    /// @notice Get balance\r\n    /// @return The balance of the user\r\n    // A SPECIAL KEYWORD prevents function from editing state variables;\r\n    // allows function to run locally/off blockchain\r\n    function getBalance() public view returns (uint) {\r\n        /* Get the balance of the sender of this transaction */\r\n        return balances[msg.sender];\r\n    }\r\n\r\n    /// @notice Enroll a customer with the bank\r\n    /// @return The users enrolled status\r\n    // Emit the appropriate event\r\n    function enroll() public returns (bool){\r\n        enrolled[msg.sender] = true;\r\n        emit LogEnrolled(msg.sender);\r\n    }\r\n\r\n    /// @notice Deposit ether into bank\r\n    /// @return The balance of the user after the deposit is made\r\n    // Add the appropriate keyword so that this function can receive ether\r\n    // Use the appropriate global variables to get the transaction sender and value\r\n    // Emit the appropriate event\r\n    // Users should be enrolled before they can make deposits\r\n    function deposit() public payable returns (uint) {\r\n        /* Add the amount to the user's balance, call the event associated with a deposit,\r\n          then return the balance of the user */\r\n        require(enrolled[msg.sender], \"This user isn't enrolled in Simple Bank\");\r\n        balances[msg.sender] = balances[msg.sender] + msg.value;\r\n        emit LogDepositMade(msg.sender, msg.value);\r\n        return balances[msg.sender];\r\n    }\r\n\r\n    /// @notice Withdraw ether from bank\r\n    /// @dev This does not return any excess ether sent to it\r\n    /// @param withdrawAmount amount you want to withdraw\r\n    /// @return The balance remaining for the user\r\n    // Emit the appropriate event\r\n    function withdraw(uint withdrawAmount) public returns (uint) {\r\n        /* If the sender's balance is at least the amount they want to withdraw,\r\n           Subtract the amount from the sender's balance, and try to send that amount of ether\r\n           to the user attempting to withdraw.\r\n           return the user's balance.*/\r\n           require(balances[msg.sender]>=withdrawAmount, \"You don't have sufficient funds.\");\r\n           balances[msg.sender] = balances[msg.sender] - withdrawAmount;\r\n           emit LogWithdrawal(msg.sender, withdrawAmount,  balances[msg.sender]);\r\n           address(msg.sender).transfer(withdrawAmount);\r\n    }\r\n\r\n    // Fallback function - Called if other functions don't match call or\r\n    // sent ether without data\r\n    // Typically, called when invalid data is sent\r\n    // Added so ether sent to this contract is reverted if the contract fails\r\n    // otherwise, the sender's money is transferred to contract\r\n    function() external {\r\n        revert(\"\");\r\n    }\r\n}\r\n",
  "sourcePath": "C:/source/consensys/simple-bank/contracts/SimpleBank.sol",
  "compiler": {
    "name": "solc",
    "version": "0.5.0+commit.1d4f565a.Emscripten.clang"
  },
  "schemaVersion": "3.0.9",
  "updatedAt": "2019-05-26T07:50:31.170Z",
  "devdoc": {
    "methods": {
      "deposit()": {
        "return": "The balance of the user after the deposit is made"
      },
      "enroll()": {
        "return": "The users enrolled status"
      },
      "getBalance()": {
        "return": "The balance of the user"
      },
      "withdraw(uint256)": {
        "return": "The balance remaining for the user"
      }
    }
  },
  "userdoc": {
    "methods": {}
  }
}